{
  "_format": "hh-sol-artifact-1",
  "contractName": "BorrowerLogic",
  "sourceName": "contracts/BorrowerLogic.sol",
  "abi": [
    {
      "inputs": [
        {
          "internalType": "address",
          "name": "DelegateAddress",
          "type": "address"
        },
        {
          "internalType": "address",
          "name": "LenderContract",
          "type": "address"
        },
        {
          "internalType": "address",
          "name": "DaoTreasury",
          "type": "address"
        }
      ],
      "stateMutability": "nonpayable",
      "type": "constructor"
    },
    {
      "anonymous": false,
      "inputs": [
        {
          "indexed": true,
          "internalType": "bytes32",
          "name": "role",
          "type": "bytes32"
        },
        {
          "indexed": true,
          "internalType": "bytes32",
          "name": "previousAdminRole",
          "type": "bytes32"
        },
        {
          "indexed": true,
          "internalType": "bytes32",
          "name": "newAdminRole",
          "type": "bytes32"
        }
      ],
      "name": "RoleAdminChanged",
      "type": "event"
    },
    {
      "anonymous": false,
      "inputs": [
        {
          "indexed": true,
          "internalType": "bytes32",
          "name": "role",
          "type": "bytes32"
        },
        {
          "indexed": true,
          "internalType": "address",
          "name": "account",
          "type": "address"
        },
        {
          "indexed": true,
          "internalType": "address",
          "name": "sender",
          "type": "address"
        }
      ],
      "name": "RoleGranted",
      "type": "event"
    },
    {
      "anonymous": false,
      "inputs": [
        {
          "indexed": true,
          "internalType": "bytes32",
          "name": "role",
          "type": "bytes32"
        },
        {
          "indexed": true,
          "internalType": "address",
          "name": "account",
          "type": "address"
        },
        {
          "indexed": true,
          "internalType": "address",
          "name": "sender",
          "type": "address"
        }
      ],
      "name": "RoleRevoked",
      "type": "event"
    },
    {
      "anonymous": false,
      "inputs": [
        {
          "indexed": false,
          "internalType": "uint256",
          "name": "LoanNumber",
          "type": "uint256"
        },
        {
          "indexed": false,
          "internalType": "uint256",
          "name": "Rate",
          "type": "uint256"
        },
        {
          "indexed": false,
          "internalType": "uint256",
          "name": "LoanAmount",
          "type": "uint256"
        },
        {
          "indexed": false,
          "internalType": "uint256",
          "name": "LoanDuration",
          "type": "uint256"
        },
        {
          "indexed": false,
          "internalType": "address",
          "name": "UserAddress",
          "type": "address"
        },
        {
          "indexed": false,
          "internalType": "bool",
          "name": "DelegateVerified",
          "type": "bool"
        }
      ],
      "name": "loanApproved",
      "type": "event"
    },
    {
      "anonymous": false,
      "inputs": [
        {
          "indexed": false,
          "internalType": "uint256",
          "name": "LoanNumber",
          "type": "uint256"
        },
        {
          "indexed": false,
          "internalType": "uint256",
          "name": "Rate",
          "type": "uint256"
        },
        {
          "indexed": false,
          "internalType": "uint256",
          "name": "LoanAmount",
          "type": "uint256"
        },
        {
          "indexed": false,
          "internalType": "uint256",
          "name": "LoanDuration",
          "type": "uint256"
        },
        {
          "indexed": false,
          "internalType": "address",
          "name": "BorrowerAddress",
          "type": "address"
        }
      ],
      "name": "loanCreated",
      "type": "event"
    },
    {
      "anonymous": false,
      "inputs": [
        {
          "indexed": false,
          "internalType": "uint256",
          "name": "LoanNumber",
          "type": "uint256"
        },
        {
          "indexed": false,
          "internalType": "uint256",
          "name": "LoanAmount",
          "type": "uint256"
        },
        {
          "indexed": false,
          "internalType": "uint256",
          "name": "creationTime",
          "type": "uint256"
        },
        {
          "indexed": false,
          "internalType": "uint256",
          "name": "maturityTime",
          "type": "uint256"
        },
        {
          "indexed": false,
          "internalType": "uint256",
          "name": "DaysOverdue",
          "type": "uint256"
        },
        {
          "indexed": false,
          "internalType": "bool",
          "name": "LoanRepaid",
          "type": "bool"
        }
      ],
      "name": "loanDeprecated",
      "type": "event"
    },
    {
      "anonymous": false,
      "inputs": [
        {
          "indexed": false,
          "internalType": "uint256",
          "name": "LoanNumber",
          "type": "uint256"
        },
        {
          "indexed": false,
          "internalType": "uint256",
          "name": "ExpiryTimestamp",
          "type": "uint256"
        },
        {
          "indexed": false,
          "internalType": "uint256",
          "name": "CurrentTimestamp",
          "type": "uint256"
        }
      ],
      "name": "loanOverdue",
      "type": "event"
    },
    {
      "inputs": [],
      "name": "BORROWER_ROLE",
      "outputs": [
        {
          "internalType": "bytes32",
          "name": "",
          "type": "bytes32"
        }
      ],
      "stateMutability": "view",
      "type": "function"
    },
    {
      "inputs": [],
      "name": "DEFAULT_ADMIN_ROLE",
      "outputs": [
        {
          "internalType": "bytes32",
          "name": "",
          "type": "bytes32"
        }
      ],
      "stateMutability": "view",
      "type": "function"
    },
    {
      "inputs": [],
      "name": "DELEGATE_ROLE",
      "outputs": [
        {
          "internalType": "bytes32",
          "name": "",
          "type": "bytes32"
        }
      ],
      "stateMutability": "view",
      "type": "function"
    },
    {
      "inputs": [],
      "name": "LENDER_ROLE",
      "outputs": [
        {
          "internalType": "bytes32",
          "name": "",
          "type": "bytes32"
        }
      ],
      "stateMutability": "view",
      "type": "function"
    },
    {
      "inputs": [],
      "name": "OWNER_ROLE",
      "outputs": [
        {
          "internalType": "bytes32",
          "name": "",
          "type": "bytes32"
        }
      ],
      "stateMutability": "view",
      "type": "function"
    },
    {
      "inputs": [
        {
          "internalType": "uint256",
          "name": "",
          "type": "uint256"
        }
      ],
      "name": "_LoanNumberToLoanAgreement",
      "outputs": [
        {
          "internalType": "uint256",
          "name": "rate",
          "type": "uint256"
        },
        {
          "internalType": "uint256",
          "name": "loanAmount",
          "type": "uint256"
        },
        {
          "internalType": "uint256",
          "name": "loanDuration",
          "type": "uint256"
        },
        {
          "internalType": "address",
          "name": "borrowerAddress",
          "type": "address"
        },
        {
          "internalType": "uint256",
          "name": "creationTime",
          "type": "uint256"
        },
        {
          "internalType": "uint256",
          "name": "maturityTime",
          "type": "uint256"
        },
        {
          "internalType": "bool",
          "name": "loanRepaid",
          "type": "bool"
        },
        {
          "internalType": "bool",
          "name": "delegateVerified",
          "type": "bool"
        },
        {
          "internalType": "bool",
          "name": "loanActive",
          "type": "bool"
        }
      ],
      "stateMutability": "view",
      "type": "function"
    },
    {
      "inputs": [],
      "name": "agentAddress",
      "outputs": [
        {
          "internalType": "address",
          "name": "",
          "type": "address"
        }
      ],
      "stateMutability": "view",
      "type": "function"
    },
    {
      "inputs": [],
      "name": "agentCommission",
      "outputs": [
        {
          "internalType": "uint256",
          "name": "",
          "type": "uint256"
        }
      ],
      "stateMutability": "view",
      "type": "function"
    },
    {
      "inputs": [],
      "name": "borrowerAddress",
      "outputs": [
        {
          "internalType": "address",
          "name": "",
          "type": "address"
        }
      ],
      "stateMutability": "view",
      "type": "function"
    },
    {
      "inputs": [],
      "name": "checkAccess",
      "outputs": [
        {
          "internalType": "uint256",
          "name": "",
          "type": "uint256"
        }
      ],
      "stateMutability": "nonpayable",
      "type": "function"
    },
    {
      "inputs": [],
      "name": "checkAll",
      "outputs": [
        {
          "internalType": "uint256[]",
          "name": "",
          "type": "uint256[]"
        }
      ],
      "stateMutability": "view",
      "type": "function"
    },
    {
      "inputs": [
        {
          "internalType": "uint256",
          "name": "loanNumber",
          "type": "uint256"
        }
      ],
      "name": "checkOverdue",
      "outputs": [
        {
          "internalType": "bool",
          "name": "",
          "type": "bool"
        }
      ],
      "stateMutability": "view",
      "type": "function"
    },
    {
      "inputs": [
        {
          "internalType": "uint256",
          "name": "LoanAmount",
          "type": "uint256"
        },
        {
          "internalType": "uint256",
          "name": "LoanDuration",
          "type": "uint256"
        },
        {
          "internalType": "uint256",
          "name": "Rate",
          "type": "uint256"
        }
      ],
      "name": "createLoanAgreement",
      "outputs": [
        {
          "internalType": "uint256",
          "name": "",
          "type": "uint256"
        }
      ],
      "stateMutability": "nonpayable",
      "type": "function"
    },
    {
      "inputs": [],
      "name": "creationTime",
      "outputs": [
        {
          "internalType": "uint256",
          "name": "",
          "type": "uint256"
        }
      ],
      "stateMutability": "view",
      "type": "function"
    },
    {
      "inputs": [],
      "name": "daoTreasury",
      "outputs": [
        {
          "internalType": "address",
          "name": "",
          "type": "address"
        }
      ],
      "stateMutability": "view",
      "type": "function"
    },
    {
      "inputs": [],
      "name": "delegateAddress",
      "outputs": [
        {
          "internalType": "address",
          "name": "",
          "type": "address"
        }
      ],
      "stateMutability": "view",
      "type": "function"
    },
    {
      "inputs": [],
      "name": "delegateVerified",
      "outputs": [
        {
          "internalType": "bool",
          "name": "",
          "type": "bool"
        }
      ],
      "stateMutability": "view",
      "type": "function"
    },
    {
      "inputs": [
        {
          "internalType": "uint256",
          "name": "loanNumber",
          "type": "uint256"
        }
      ],
      "name": "delegateVerify",
      "outputs": [
        {
          "internalType": "bool",
          "name": "",
          "type": "bool"
        }
      ],
      "stateMutability": "nonpayable",
      "type": "function"
    },
    {
      "inputs": [
        {
          "internalType": "uint256",
          "name": "loanNumber",
          "type": "uint256"
        }
      ],
      "name": "deprecateLoan",
      "outputs": [
        {
          "internalType": "uint256",
          "name": "",
          "type": "uint256"
        }
      ],
      "stateMutability": "nonpayable",
      "type": "function"
    },
    {
      "inputs": [
        {
          "internalType": "uint256",
          "name": "loanNumber",
          "type": "uint256"
        }
      ],
      "name": "executeLoanAgreement",
      "outputs": [
        {
          "internalType": "bool",
          "name": "",
          "type": "bool"
        }
      ],
      "stateMutability": "payable",
      "type": "function"
    },
    {
      "inputs": [
        {
          "internalType": "bytes32",
          "name": "role",
          "type": "bytes32"
        }
      ],
      "name": "getRoleAdmin",
      "outputs": [
        {
          "internalType": "bytes32",
          "name": "",
          "type": "bytes32"
        }
      ],
      "stateMutability": "view",
      "type": "function"
    },
    {
      "inputs": [],
      "name": "globalLoanNumber",
      "outputs": [
        {
          "internalType": "uint256",
          "name": "",
          "type": "uint256"
        }
      ],
      "stateMutability": "view",
      "type": "function"
    },
    {
      "inputs": [
        {
          "internalType": "address",
          "name": "a",
          "type": "address"
        }
      ],
      "name": "grantBorrower",
      "outputs": [],
      "stateMutability": "nonpayable",
      "type": "function"
    },
    {
      "inputs": [
        {
          "internalType": "address",
          "name": "a",
          "type": "address"
        }
      ],
      "name": "grantDelegate",
      "outputs": [],
      "stateMutability": "nonpayable",
      "type": "function"
    },
    {
      "inputs": [
        {
          "internalType": "address",
          "name": "a",
          "type": "address"
        }
      ],
      "name": "grantLender",
      "outputs": [],
      "stateMutability": "nonpayable",
      "type": "function"
    },
    {
      "inputs": [
        {
          "internalType": "bytes32",
          "name": "role",
          "type": "bytes32"
        },
        {
          "internalType": "address",
          "name": "account",
          "type": "address"
        }
      ],
      "name": "grantRole",
      "outputs": [],
      "stateMutability": "nonpayable",
      "type": "function"
    },
    {
      "inputs": [
        {
          "internalType": "bytes32",
          "name": "role",
          "type": "bytes32"
        },
        {
          "internalType": "address",
          "name": "account",
          "type": "address"
        }
      ],
      "name": "hasRole",
      "outputs": [
        {
          "internalType": "bool",
          "name": "",
          "type": "bool"
        }
      ],
      "stateMutability": "view",
      "type": "function"
    },
    {
      "inputs": [],
      "name": "lenderContract",
      "outputs": [
        {
          "internalType": "address",
          "name": "",
          "type": "address"
        }
      ],
      "stateMutability": "view",
      "type": "function"
    },
    {
      "inputs": [],
      "name": "loanActive",
      "outputs": [
        {
          "internalType": "bool",
          "name": "",
          "type": "bool"
        }
      ],
      "stateMutability": "view",
      "type": "function"
    },
    {
      "inputs": [],
      "name": "loanAmount",
      "outputs": [
        {
          "internalType": "uint256",
          "name": "",
          "type": "uint256"
        }
      ],
      "stateMutability": "view",
      "type": "function"
    },
    {
      "inputs": [],
      "name": "loanDuration",
      "outputs": [
        {
          "internalType": "uint256",
          "name": "",
          "type": "uint256"
        }
      ],
      "stateMutability": "view",
      "type": "function"
    },
    {
      "inputs": [],
      "name": "loanRepaid",
      "outputs": [
        {
          "internalType": "bool",
          "name": "",
          "type": "bool"
        }
      ],
      "stateMutability": "view",
      "type": "function"
    },
    {
      "inputs": [],
      "name": "maturityTime",
      "outputs": [
        {
          "internalType": "uint256",
          "name": "",
          "type": "uint256"
        }
      ],
      "stateMutability": "view",
      "type": "function"
    },
    {
      "inputs": [
        {
          "internalType": "address",
          "name": "a",
          "type": "address"
        }
      ],
      "name": "ownerRole",
      "outputs": [
        {
          "internalType": "bool",
          "name": "",
          "type": "bool"
        }
      ],
      "stateMutability": "view",
      "type": "function"
    },
    {
      "inputs": [],
      "name": "rate",
      "outputs": [
        {
          "internalType": "uint256",
          "name": "",
          "type": "uint256"
        }
      ],
      "stateMutability": "view",
      "type": "function"
    },
    {
      "inputs": [
        {
          "internalType": "bytes32",
          "name": "role",
          "type": "bytes32"
        },
        {
          "internalType": "address",
          "name": "account",
          "type": "address"
        }
      ],
      "name": "renounceRole",
      "outputs": [],
      "stateMutability": "nonpayable",
      "type": "function"
    },
    {
      "inputs": [
        {
          "internalType": "uint256",
          "name": "loanNumber",
          "type": "uint256"
        }
      ],
      "name": "repayLoan",
      "outputs": [
        {
          "internalType": "bool",
          "name": "",
          "type": "bool"
        }
      ],
      "stateMutability": "payable",
      "type": "function"
    },
    {
      "inputs": [
        {
          "internalType": "bytes32",
          "name": "role",
          "type": "bytes32"
        },
        {
          "internalType": "address",
          "name": "account",
          "type": "address"
        }
      ],
      "name": "revokeRole",
      "outputs": [],
      "stateMutability": "nonpayable",
      "type": "function"
    },
    {
      "inputs": [
        {
          "internalType": "uint256",
          "name": "loanNumber",
          "type": "uint256"
        },
        {
          "internalType": "uint256",
          "name": "loanAmount",
          "type": "uint256"
        },
        {
          "internalType": "uint256",
          "name": "loanBase",
          "type": "uint256"
        }
      ],
      "name": "routeFunds",
      "outputs": [
        {
          "internalType": "bool",
          "name": "",
          "type": "bool"
        }
      ],
      "stateMutability": "nonpayable",
      "type": "function"
    },
    {
      "inputs": [
        {
          "internalType": "bytes4",
          "name": "interfaceId",
          "type": "bytes4"
        }
      ],
      "name": "supportsInterface",
      "outputs": [
        {
          "internalType": "bool",
          "name": "",
          "type": "bool"
        }
      ],
      "stateMutability": "view",
      "type": "function"
    }
  ],
  "bytecode": "0x60806040523480156200001157600080fd5b506040516200396e3803806200396e83398181016040528101906200003791906200046f565b6001808190555082600a60016101000a81548173ffffffffffffffffffffffffffffffffffffffff021916908373ffffffffffffffffffffffffffffffffffffffff16021790555080600c60006101000a81548173ffffffffffffffffffffffffffffffffffffffff021916908373ffffffffffffffffffffffffffffffffffffffff16021790555081600b60006101000a81548173ffffffffffffffffffffffffffffffffffffffff021916908373ffffffffffffffffffffffffffffffffffffffff160217905550620001427fb19546dff01e856fb3f010c267a7b1c60363cf8a4664e21cc89c26224620214e620001366200027360201b60201c565b6200027b60201b60201c565b620001747fb19546dff01e856fb3f010c267a7b1c60363cf8a4664e21cc89c26224620214e806200036c60201b60201c565b620001c67fc60d7a62d8843f2b14bc63f2a5240b187980481ad8c001a3caf4916aef3f667e7fb19546dff01e856fb3f010c267a7b1c60363cf8a4664e21cc89c26224620214e6200036c60201b60201c565b620002187f1a82baf2b928242f69f7147fb92490c6288d044f7257b88817e6284f1eec0f157fb19546dff01e856fb3f010c267a7b1c60363cf8a4664e21cc89c26224620214e6200036c60201b60201c565b6200026a7f2344277e405079ec07749d374ba0b5862a4e45a6a05ac889dbb4a991c6f9354d7fb19546dff01e856fb3f010c267a7b1c60363cf8a4664e21cc89c26224620214e6200036c60201b60201c565b50505062000513565b600033905090565b6200028d8282620003cf60201b60201c565b6200036857600160008084815260200190815260200160002060000160008373ffffffffffffffffffffffffffffffffffffffff1673ffffffffffffffffffffffffffffffffffffffff16815260200190815260200160002060006101000a81548160ff0219169083151502179055506200030d6200027360201b60201c565b73ffffffffffffffffffffffffffffffffffffffff168173ffffffffffffffffffffffffffffffffffffffff16837f2f8788117e7eff1d82e926ec794901d17c78024a50270940304540a733656f0d60405160405180910390a45b5050565b60006200037f836200043960201b60201c565b905081600080858152602001908152602001600020600101819055508181847fbd79b86ffe0ab8e8776151514217cd7cacd52c909f66475c3af44e129f0b00ff60405160405180910390a4505050565b600080600084815260200190815260200160002060000160008373ffffffffffffffffffffffffffffffffffffffff1673ffffffffffffffffffffffffffffffffffffffff16815260200190815260200160002060009054906101000a900460ff16905092915050565b6000806000838152602001908152602001600020600101549050919050565b6000815190506200046981620004f9565b92915050565b6000806000606084860312156200048557600080fd5b6000620004958682870162000458565b9350506020620004a88682870162000458565b9250506040620004bb8682870162000458565b9150509250925092565b6000620004d282620004d9565b9050919050565b600073ffffffffffffffffffffffffffffffffffffffff82169050919050565b6200050481620004c5565b81146200051057600080fd5b50565b61344b80620005236000396000f3fe6080604052600436106102395760003560e01c8063a217fddf1161012e578063d385975c116100ab578063ebf6799e1161006f578063ebf6799e146108b0578063ecb10135146108ed578063f5521bf114610918578063fd06014d14610943578063fd97179e1461098057610239565b8063d385975c146107c9578063d547741f14610806578063d8270dce1461082f578063dbdb6d5a1461085a578063e58378bb1461088557610239565b8063bd915971116100f2578063bd915971146106e0578063bff1d2e31461070b578063c0ba241b14610736578063c3cd54a214610761578063cf1261d31461078c57610239565b8063a217fddf146105e2578063a25515f31461060d578063a757acd91461064a578063ab7b1c8914610673578063bce7e77d146106a357610239565b806348b75090116101bc57806379022a9f1161018057806379022a9f146104f957806379a77d7c146105245780637ba61ea51461054f57806391d148541461057a5780639d585f7f146105b757610239565b806348b75090146104085780634e8bfdaa14610433578063593ee5be1461045e57806363ca9ea2146104895780636d96a2aa146104ce57610239565b8063248a9ca311610203578063248a9ca3146103235780632c4e722e146103605780632f2ff15d1461038b57806336568abe146103b457806338613690146103dd57610239565b80622c414c1461023e578062abafe11461026757806301ffc9a7146102925780630e7b949e146102cf57806311cb8088146102fa575b600080fd5b34801561024a57600080fd5b506102656004803603810190610260919061240a565b6109b0565b005b34801561027357600080fd5b5061027c610a4d565b6040516102899190612926565b60405180910390f35b34801561029e57600080fd5b506102b960048036038101906102b49190612498565b610a71565b6040516102c6919061290b565b60405180910390f35b3480156102db57600080fd5b506102e4610aeb565b6040516102f19190612926565b60405180910390f35b34801561030657600080fd5b50610321600480360381019061031c919061240a565b610b0f565b005b34801561032f57600080fd5b5061034a60048036038101906103459190612433565b610bac565b6040516103579190612926565b60405180910390f35b34801561036c57600080fd5b50610375610bcb565b6040516103829190612b23565b60405180910390f35b34801561039757600080fd5b506103b260048036038101906103ad919061245c565b610bd1565b005b3480156103c057600080fd5b506103db60048036038101906103d6919061245c565b610bfa565b005b3480156103e957600080fd5b506103f2610c7d565b6040516103ff91906128ce565b60405180910390f35b34801561041457600080fd5b5061041d610ca3565b60405161042a919061290b565b60405180910390f35b34801561043f57600080fd5b50610448610cb6565b6040516104559190612b23565b60405180910390f35b34801561046a57600080fd5b50610473610cbc565b6040516104809190612b23565b60405180910390f35b34801561049557600080fd5b506104b060048036038101906104ab91906124c1565b610cc2565b6040516104c599989796959493929190612b75565b60405180910390f35b3480156104da57600080fd5b506104e3610d57565b6040516104f091906128ce565b60405180910390f35b34801561050557600080fd5b5061050e610d7d565b60405161051b91906128ce565b60405180910390f35b34801561053057600080fd5b50610539610da3565b60405161054691906128e9565b60405180910390f35b34801561055b57600080fd5b50610564610e77565b60405161057191906128ce565b60405180910390f35b34801561058657600080fd5b506105a1600480360381019061059c919061245c565b610e9d565b6040516105ae919061290b565b60405180910390f35b3480156105c357600080fd5b506105cc610f07565b6040516105d99190612b23565b60405180910390f35b3480156105ee57600080fd5b506105f7610f0d565b6040516106049190612926565b60405180910390f35b34801561061957600080fd5b50610634600480360381019061062f91906124c1565b610f14565b6040516106419190612b23565b60405180910390f35b34801561065657600080fd5b50610671600480360381019061066c919061240a565b61114d565b005b61068d600480360381019061068891906124c1565b6111ea565b60405161069a919061290b565b60405180910390f35b3480156106af57600080fd5b506106ca60048036038101906106c5919061240a565b611445565b6040516106d7919061290b565b60405180910390f35b3480156106ec57600080fd5b506106f5611478565b6040516107029190612b23565b60405180910390f35b34801561071757600080fd5b5061072061147e565b60405161072d919061290b565b60405180910390f35b34801561074257600080fd5b5061074b611491565b6040516107589190612926565b60405180910390f35b34801561076d57600080fd5b506107766114b5565b60405161078391906128ce565b60405180910390f35b34801561079857600080fd5b506107b360048036038101906107ae91906124c1565b6114db565b6040516107c0919061290b565b60405180910390f35b3480156107d557600080fd5b506107f060048036038101906107eb91906124ea565b611637565b6040516107fd919061290b565b60405180910390f35b34801561081257600080fd5b5061082d6004803603810190610828919061245c565b61173c565b005b34801561083b57600080fd5b50610844611765565b6040516108519190612b23565b60405180910390f35b34801561086657600080fd5b5061086f61176b565b60405161087c919061290b565b60405180910390f35b34801561089157600080fd5b5061089a61177e565b6040516108a79190612926565b60405180910390f35b3480156108bc57600080fd5b506108d760048036038101906108d291906124ea565b6117a2565b6040516108e49190612b23565b60405180910390f35b3480156108f957600080fd5b506109026119fd565b60405161090f9190612b23565b60405180910390f35b34801561092457600080fd5b5061092d611b1e565b60405161093a9190612b23565b60405180910390f35b34801561094f57600080fd5b5061096a600480360381019061096591906124c1565b611b24565b604051610977919061290b565b60405180910390f35b61099a600480360381019061099591906124c1565b611b8a565b6040516109a7919061290b565b60405180910390f35b6109e17fb19546dff01e856fb3f010c267a7b1c60363cf8a4664e21cc89c26224620214e6109dc611d84565b610e9d565b610a20576040517f08c379a0000000000000000000000000000000000000000000000000000000008152600401610a1790612a63565b60405180910390fd5b610a4a7f2344277e405079ec07749d374ba0b5862a4e45a6a05ac889dbb4a991c6f9354d82610bd1565b50565b7fc60d7a62d8843f2b14bc63f2a5240b187980481ad8c001a3caf4916aef3f667e81565b60007f7965db0b000000000000000000000000000000000000000000000000000000007bffffffffffffffffffffffffffffffffffffffffffffffffffffffff1916827bffffffffffffffffffffffffffffffffffffffffffffffffffffffff19161480610ae45750610ae382611d8c565b5b9050919050565b7f2344277e405079ec07749d374ba0b5862a4e45a6a05ac889dbb4a991c6f9354d81565b610b407fb19546dff01e856fb3f010c267a7b1c60363cf8a4664e21cc89c26224620214e610b3b611d84565b610e9d565b610b7f576040517f08c379a0000000000000000000000000000000000000000000000000000000008152600401610b7690612a63565b60405180910390fd5b610ba97fc60d7a62d8843f2b14bc63f2a5240b187980481ad8c001a3caf4916aef3f667e82610bd1565b50565b6000806000838152602001908152602001600020600101549050919050565b60025481565b610bda82610bac565b610beb81610be6611d84565b611df6565b610bf58383611e93565b505050565b610c02611d84565b73ffffffffffffffffffffffffffffffffffffffff168173ffffffffffffffffffffffffffffffffffffffff1614610c6f576040517f08c379a0000000000000000000000000000000000000000000000000000000008152600401610c6690612b03565b60405180910390fd5b610c798282611f73565b5050565b600660009054906101000a900473ffffffffffffffffffffffffffffffffffffffff1681565b600a60169054906101000a900460ff1681565b60095481565b60035481565b600d6020528060005260406000206000915090508060000154908060010154908060020154908060030160009054906101000a900473ffffffffffffffffffffffffffffffffffffffff16908060040154908060050154908060060160009054906101000a900460ff16908060060160019054906101000a900460ff16908060060160029054906101000a900460ff16905089565b600a60019054906101000a900473ffffffffffffffffffffffffffffffffffffffff1681565b600c60009054906101000a900473ffffffffffffffffffffffffffffffffffffffff1681565b606080600080600190505b6001548111610e6e5760011515600d600083815260200190815260200160002060060160029054906101000a900460ff1615151415610e5b5760011515610df482611b24565b15151415610e5a5760008214610e13578180610e0f90612f67565b9250505b80838381518110610e4d577f4e487b7100000000000000000000000000000000000000000000000000000000600052603260045260246000fd5b6020026020010181815250505b5b8080610e6690612f67565b915050610dae565b50819250505090565b600760009054906101000a900473ffffffffffffffffffffffffffffffffffffffff1681565b600080600084815260200190815260200160002060000160008373ffffffffffffffffffffffffffffffffffffffff1673ffffffffffffffffffffffffffffffffffffffff16815260200190815260200160002060009054906101000a900460ff16905092915050565b60045481565b6000801b81565b6000610f477fb19546dff01e856fb3f010c267a7b1c60363cf8a4664e21cc89c26224620214e610f42611d84565b610e9d565b610f86576040517f08c379a0000000000000000000000000000000000000000000000000000000008152600401610f7d90612a63565b60405180910390fd5b60011515600d600084815260200190815260200160002060060160029054906101000a900460ff16151514610ff0576040517f08c379a0000000000000000000000000000000000000000000000000000000008152600401610fe790612aa3565b60405180910390fd5b60011515600d600084815260200190815260200160002060060160009054906101000a900460ff1615151461105a576040517f08c379a000000000000000000000000000000000000000000000000000000000815260040161105190612a43565b60405180910390fd5b6000600d600084815260200190815260200160002060060160026101000a81548160ff0219169083151502179055507fca16e310bbd87a454ab5454965af03dad521d8f4736585e0a079011f8037b84582600d600085815260200190815260200160002060010154600d600086815260200190815260200160002060020154600d600087815260200190815260200160002060040154600d600088815260200190815260200160002060050154600d600089815260200190815260200160002060060160009054906101000a900460ff1660405161113d96959493929190612cb6565b60405180910390a1819050919050565b61117e7fb19546dff01e856fb3f010c267a7b1c60363cf8a4664e21cc89c26224620214e611179611d84565b610e9d565b6111bd576040517f08c379a00000000000000000000000000000000000000000000000000000000081526004016111b490612a63565b60405180910390fd5b6111e77f1a82baf2b928242f69f7147fb92490c6288d044f7257b88817e6284f1eec0f1582610bd1565b50565b600061121d7f2344277e405079ec07749d374ba0b5862a4e45a6a05ac889dbb4a991c6f9354d611218611d84565b610e9d565b61125c576040517f08c379a000000000000000000000000000000000000000000000000000000000815260040161125390612a83565b60405180910390fd5b60004290506000600d60008581526020019081526020016000206001015490506000600d60008681526020019081526020016000206001015490506000600d6000878152602001908152602001600020600401549050600115156112bf87611b24565b15151415611319577f41b1ccffc8abb5ac0878cb5312f2c017b0515a363a294ac023ee0b63b20d939b86600d6000898152602001908152602001600020600501544260405161131093929190612b3e565b60405180910390a15b62015180816113289190612d77565b8411611369576040517f08c379a000000000000000000000000000000000000000000000000000000000815260040161136090612ac3565b60405180910390fd5b600062015180828661137b9190612e58565b6113859190612dcd565b90506000600190505b8181116113c357600254846113a39190612dfe565b846113ae9190612d77565b935080806113bb90612f67565b91505061138e565b5082600d60008981526020019081526020016000206001018190555034600d60008981526020019081526020016000206001015414611437576040517f08c379a000000000000000000000000000000000000000000000000000000000815260040161142e906129e3565b60405180910390fd5b600195505050505050919050565b60006114717fb19546dff01e856fb3f010c267a7b1c60363cf8a4664e21cc89c26224620214e83610e9d565b9050919050565b60015481565b600a60009054906101000a900460ff1681565b7f1a82baf2b928242f69f7147fb92490c6288d044f7257b88817e6284f1eec0f1581565b600b60009054906101000a900473ffffffffffffffffffffffffffffffffffffffff1681565b600061150e7f1a82baf2b928242f69f7147fb92490c6288d044f7257b88817e6284f1eec0f15611509611d84565b610e9d565b61154d576040517f08c379a0000000000000000000000000000000000000000000000000000000008152600401611544906129a3565b60405180910390fd5b600a60019054906101000a900473ffffffffffffffffffffffffffffffffffffffff1673ffffffffffffffffffffffffffffffffffffffff163373ffffffffffffffffffffffffffffffffffffffff16146115dd576040517f08c379a00000000000000000000000000000000000000000000000000000000081526004016115d490612a23565b60405180910390fd5b6001600d600084815260200190815260200160002060060160016101000a81548160ff021916908315150217905550600d600083815260200190815260200160002060060160019054906101000a900460ff169050919050565b600061166a7f1a82baf2b928242f69f7147fb92490c6288d044f7257b88817e6284f1eec0f15611665611d84565b610e9d565b6116a9576040517f08c379a00000000000000000000000000000000000000000000000000000000081526004016116a0906129a3565b60405180910390fd5b600082846116b79190612e58565b90506000600a826116c89190612dfe565b6007836116d59190612dfe565b6116df9190612dcd565b90506000600a836116f09190612dfe565b6001846116fd9190612dfe565b6117079190612dcd565b90506000600a846117189190612dfe565b6002856117259190612dfe565b61172f9190612dcd565b9050505050509392505050565b61174582610bac565b61175681611751611d84565b611df6565b6117608383611f73565b505050565b60085481565b600a60159054906101000a900460ff1681565b7fb19546dff01e856fb3f010c267a7b1c60363cf8a4664e21cc89c26224620214e81565b60006117d57fc60d7a62d8843f2b14bc63f2a5240b187980481ad8c001a3caf4916aef3f667e6117d0611d84565b610e9d565b611814576040517f08c379a000000000000000000000000000000000000000000000000000000000815260040161180b90612963565b60405180910390fd5b6000600154905061182361234e565b6000429050600062015180876118399190612dfe565b826118449190612d77565b90506040518061012001604052808781526020018981526020018881526020013373ffffffffffffffffffffffffffffffffffffffff16815260200183815260200182815260200160001515815260200160001515815260200160001515815250925082600d600086815260200190815260200160002060008201518160000155602082015181600101556040820151816002015560608201518160030160006101000a81548173ffffffffffffffffffffffffffffffffffffffff021916908373ffffffffffffffffffffffffffffffffffffffff1602179055506080820151816004015560a0820151816005015560c08201518160060160006101000a81548160ff02191690831515021790555060e08201518160060160016101000a81548160ff0219169083151502179055506101008201518160060160026101000a81548160ff021916908315150217905550905050600160008154809291906119ab90612f67565b91905055507fc5da4a9a2b8ac6a4810da4bc90337fdcf62ea6684f50ca74df4178cbb4b8d10984878a8a336040516119e7959493929190612c02565b60405180910390a1839450505050509392505050565b6000611a307fb19546dff01e856fb3f010c267a7b1c60363cf8a4664e21cc89c26224620214e611a2b611d84565b610e9d565b80611a685750611a677fc60d7a62d8843f2b14bc63f2a5240b187980481ad8c001a3caf4916aef3f667e611a62611d84565b610e9d565b5b80611aa05750611a9f7f1a82baf2b928242f69f7147fb92490c6288d044f7257b88817e6284f1eec0f15611a9a611d84565b610e9d565b5b80611ad85750611ad77f2344277e405079ec07749d374ba0b5862a4e45a6a05ac889dbb4a991c6f9354d611ad2611d84565b610e9d565b5b611b17576040517f08c379a0000000000000000000000000000000000000000000000000000000008152600401611b0e90612a03565b60405180910390fd5b6001905090565b60055481565b600042600d600084815260200190815260200160002060050154108015611b72575060001515600d600084815260200190815260200160002060060160029054906101000a900460ff161515145b15611b805760019050611b85565b600090505b919050565b600060011515600d600084815260200190815260200160002060060160019054906101000a900460ff16151514611bf6576040517f08c379a0000000000000000000000000000000000000000000000000000000008152600401611bed90612ae3565b60405180910390fd5b6001600d600084815260200190815260200160002060060160026101000a81548160ff02191690831515021790555034600d60008481526020019081526020016000206001015414611c7d576040517f08c379a0000000000000000000000000000000000000000000000000000000008152600401611c74906129c3565b60405180910390fd5b7f6af9489a2d47133a3c239542b1763c75abc8fb2d8a287eb594a4571ea143a7ac82600d600085815260200190815260200160002060000154600d600086815260200190815260200160002060010154600d600087815260200190815260200160002060020154600d600088815260200190815260200160002060030160009054906101000a900473ffffffffffffffffffffffffffffffffffffffff16600d600089815260200190815260200160002060060160019054906101000a900460ff16604051611d5196959493929190612c55565b60405180910390a1600d600083815260200190815260200160002060060160029054906101000a900460ff169050919050565b600033905090565b60007f01ffc9a7000000000000000000000000000000000000000000000000000000007bffffffffffffffffffffffffffffffffffffffffffffffffffffffff1916827bffffffffffffffffffffffffffffffffffffffffffffffffffffffff1916149050919050565b611e008282610e9d565b611e8f57611e258173ffffffffffffffffffffffffffffffffffffffff166014612054565b611e338360001c6020612054565b604051602001611e44929190612894565b6040516020818303038152906040526040517f08c379a0000000000000000000000000000000000000000000000000000000008152600401611e869190612941565b60405180910390fd5b5050565b611e9d8282610e9d565b611f6f57600160008084815260200190815260200160002060000160008373ffffffffffffffffffffffffffffffffffffffff1673ffffffffffffffffffffffffffffffffffffffff16815260200190815260200160002060006101000a81548160ff021916908315150217905550611f14611d84565b73ffffffffffffffffffffffffffffffffffffffff168173ffffffffffffffffffffffffffffffffffffffff16837f2f8788117e7eff1d82e926ec794901d17c78024a50270940304540a733656f0d60405160405180910390a45b5050565b611f7d8282610e9d565b1561205057600080600084815260200190815260200160002060000160008373ffffffffffffffffffffffffffffffffffffffff1673ffffffffffffffffffffffffffffffffffffffff16815260200190815260200160002060006101000a81548160ff021916908315150217905550611ff5611d84565b73ffffffffffffffffffffffffffffffffffffffff168173ffffffffffffffffffffffffffffffffffffffff16837ff6391f5c32d9c69d2a47ea670b442974b53935d1edc7fd64eb21e047a839171b60405160405180910390a45b5050565b6060600060028360026120679190612dfe565b6120719190612d77565b67ffffffffffffffff8111156120b0577f4e487b7100000000000000000000000000000000000000000000000000000000600052604160045260246000fd5b6040519080825280601f01601f1916602001820160405280156120e25781602001600182028036833780820191505090505b5090507f300000000000000000000000000000000000000000000000000000000000000081600081518110612140577f4e487b7100000000000000000000000000000000000000000000000000000000600052603260045260246000fd5b60200101907effffffffffffffffffffffffffffffffffffffffffffffffffffffffffffff1916908160001a9053507f7800000000000000000000000000000000000000000000000000000000000000816001815181106121ca577f4e487b7100000000000000000000000000000000000000000000000000000000600052603260045260246000fd5b60200101907effffffffffffffffffffffffffffffffffffffffffffffffffffffffffffff1916908160001a9053506000600184600261220a9190612dfe565b6122149190612d77565b90505b6001811115612300577f3031323334353637383961626364656600000000000000000000000000000000600f86166010811061227c577f4e487b7100000000000000000000000000000000000000000000000000000000600052603260045260246000fd5b1a60f81b8282815181106122b9577f4e487b7100000000000000000000000000000000000000000000000000000000600052603260045260246000fd5b60200101907effffffffffffffffffffffffffffffffffffffffffffffffffffffffffffff1916908160001a905350600485901c9450806122f990612f3d565b9050612217565b5060008414612344576040517f08c379a000000000000000000000000000000000000000000000000000000000815260040161233b90612983565b60405180910390fd5b8091505092915050565b604051806101200160405280600081526020016000815260200160008152602001600073ffffffffffffffffffffffffffffffffffffffff16815260200160008152602001600081526020016000151581526020016000151581526020016000151581525090565b6000813590506123c5816133b9565b92915050565b6000813590506123da816133d0565b92915050565b6000813590506123ef816133e7565b92915050565b600081359050612404816133fe565b92915050565b60006020828403121561241c57600080fd5b600061242a848285016123b6565b91505092915050565b60006020828403121561244557600080fd5b6000612453848285016123cb565b91505092915050565b6000806040838503121561246f57600080fd5b600061247d858286016123cb565b925050602061248e858286016123b6565b9150509250929050565b6000602082840312156124aa57600080fd5b60006124b8848285016123e0565b91505092915050565b6000602082840312156124d357600080fd5b60006124e1848285016123f5565b91505092915050565b6000806000606084860312156124ff57600080fd5b600061250d868287016123f5565b935050602061251e868287016123f5565b925050604061252f868287016123f5565b9150509250925092565b60006125458383612876565b60208301905092915050565b61255a81612e8c565b82525050565b600061256b82612d27565b6125758185612d4a565b935061258083612d17565b8060005b838110156125b15781516125988882612539565b97506125a383612d3d565b925050600181019050612584565b5085935050505092915050565b6125c781612e9e565b82525050565b6125d681612eaa565b82525050565b60006125e782612d32565b6125f18185612d5b565b9350612601818560208601612f0a565b61260a8161300e565b840191505092915050565b600061262082612d32565b61262a8185612d6c565b935061263a818560208601612f0a565b80840191505092915050565b6000612653601083612d5b565b915061265e8261301f565b602082019050919050565b6000612676602083612d5b565b915061268182613048565b602082019050919050565b6000612699601283612d5b565b91506126a482613071565b602082019050919050565b60006126bc602983612d5b565b91506126c78261309a565b604082019050919050565b60006126df603583612d5b565b91506126ea826130e9565b604082019050919050565b6000612702602f83612d5b565b915061270d82613138565b604082019050919050565b6000612725603683612d5b565b915061273082613187565b604082019050919050565b6000612748601f83612d5b565b9150612753826131d6565b602082019050919050565b600061276b601083612d5b565b9150612776826131ff565b602082019050919050565b600061278e601283612d5b565b915061279982613228565b602082019050919050565b60006127b1601783612d6c565b91506127bc82613251565b601782019050919050565b60006127d4601c83612d5b565b91506127df8261327a565b602082019050919050565b60006127f7602783612d5b565b9150612802826132a3565b604082019050919050565b600061281a602b83612d5b565b9150612825826132f2565b604082019050919050565b600061283d601183612d6c565b915061284882613341565b601182019050919050565b6000612860602f83612d5b565b915061286b8261336a565b604082019050919050565b61287f81612f00565b82525050565b61288e81612f00565b82525050565b600061289f826127a4565b91506128ab8285612615565b91506128b682612830565b91506128c28284612615565b91508190509392505050565b60006020820190506128e36000830184612551565b92915050565b600060208201905081810360008301526129038184612560565b905092915050565b600060208201905061292060008301846125be565b92915050565b600060208201905061293b60008301846125cd565b92915050565b6000602082019050818103600083015261295b81846125dc565b905092915050565b6000602082019050818103600083015261297c81612646565b9050919050565b6000602082019050818103600083015261299c81612669565b9050919050565b600060208201905081810360008301526129bc8161268c565b9050919050565b600060208201905081810360008301526129dc816126af565b9050919050565b600060208201905081810360008301526129fc816126d2565b9050919050565b60006020820190508181036000830152612a1c816126f5565b9050919050565b60006020820190508181036000830152612a3c81612718565b9050919050565b60006020820190508181036000830152612a5c8161273b565b9050919050565b60006020820190508181036000830152612a7c8161275e565b9050919050565b60006020820190508181036000830152612a9c81612781565b9050919050565b60006020820190508181036000830152612abc816127c7565b9050919050565b60006020820190508181036000830152612adc816127ea565b9050919050565b60006020820190508181036000830152612afc8161280d565b9050919050565b60006020820190508181036000830152612b1c81612853565b9050919050565b6000602082019050612b386000830184612885565b92915050565b6000606082019050612b536000830186612885565b612b606020830185612885565b612b6d6040830184612885565b949350505050565b600061012082019050612b8b600083018c612885565b612b98602083018b612885565b612ba5604083018a612885565b612bb26060830189612551565b612bbf6080830188612885565b612bcc60a0830187612885565b612bd960c08301866125be565b612be660e08301856125be565b612bf46101008301846125be565b9a9950505050505050505050565b600060a082019050612c176000830188612885565b612c246020830187612885565b612c316040830186612885565b612c3e6060830185612885565b612c4b6080830184612551565b9695505050505050565b600060c082019050612c6a6000830189612885565b612c776020830188612885565b612c846040830187612885565b612c916060830186612885565b612c9e6080830185612551565b612cab60a08301846125be565b979650505050505050565b600060c082019050612ccb6000830189612885565b612cd86020830188612885565b612ce56040830187612885565b612cf26060830186612885565b612cff6080830185612885565b612d0c60a08301846125be565b979650505050505050565b6000819050602082019050919050565b600081519050919050565b600081519050919050565b6000602082019050919050565b600082825260208201905092915050565b600082825260208201905092915050565b600081905092915050565b6000612d8282612f00565b9150612d8d83612f00565b9250827fffffffffffffffffffffffffffffffffffffffffffffffffffffffffffffffff03821115612dc257612dc1612fb0565b5b828201905092915050565b6000612dd882612f00565b9150612de383612f00565b925082612df357612df2612fdf565b5b828204905092915050565b6000612e0982612f00565b9150612e1483612f00565b9250817fffffffffffffffffffffffffffffffffffffffffffffffffffffffffffffffff0483118215151615612e4d57612e4c612fb0565b5b828202905092915050565b6000612e6382612f00565b9150612e6e83612f00565b925082821015612e8157612e80612fb0565b5b828203905092915050565b6000612e9782612ee0565b9050919050565b60008115159050919050565b6000819050919050565b60007fffffffff0000000000000000000000000000000000000000000000000000000082169050919050565b600073ffffffffffffffffffffffffffffffffffffffff82169050919050565b6000819050919050565b60005b83811015612f28578082015181840152602081019050612f0d565b83811115612f37576000848401525b50505050565b6000612f4882612f00565b91506000821415612f5c57612f5b612fb0565b5b600182039050919050565b6000612f7282612f00565b91507fffffffffffffffffffffffffffffffffffffffffffffffffffffffffffffffff821415612fa557612fa4612fb0565b5b600182019050919050565b7f4e487b7100000000000000000000000000000000000000000000000000000000600052601160045260246000fd5b7f4e487b7100000000000000000000000000000000000000000000000000000000600052601260045260246000fd5b6000601f19601f8301169050919050565b7f4d7573742062652061206c656e64657200000000000000000000000000000000600082015250565b7f537472696e67733a20686578206c656e67746820696e73756666696369656e74600082015250565b7f4d75737420626520612064656c65676174650000000000000000000000000000600082015250565b7f4552524f523a206d73672e76616c7565206e6f7420657175616c20746f206c6f60008201527f616e20616d6f756e740000000000000000000000000000000000000000000000602082015250565b7f4552524f523a206d73672e76616c7565206e6f7420657175616c20746f206f7560008201527f747374616e64696e67206c6f616e20616d6f756e740000000000000000000000602082015250565b7f43616c6c6572206d7573742068617665206120726f6c6520746f20616363657360008201527f732066756e6374696f6e2063616c6c0000000000000000000000000000000000602082015250565b7f4552524f523a2044656c6567617465566572696679206f6e6c792063616c6c6160008201527f626c652062792044656c65676174652057616c6c657400000000000000000000602082015250565b7f4552524f523a204c6f616e20686173206e6f74206265656e2072657061696400600082015250565b7f4d75737420626520616e206f776e657200000000000000000000000000000000600082015250565b7f4d757374206265206120626f72726f7765720000000000000000000000000000600082015250565b7f416363657373436f6e74726f6c3a206163636f756e7420000000000000000000600082015250565b7f4552524f523a204c6f616e20616c726561647920696e61637469766500000000600082015250565b7f4552524f523a204c6f616e2063726561746564206c657373207468616e20612060008201527f6461792061676f00000000000000000000000000000000000000000000000000602082015250565b7f4552524f523a204c6f616e206e6f742076657269666965642062792064656c6560008201527f676174652077616c6c6574000000000000000000000000000000000000000000602082015250565b7f206973206d697373696e6720726f6c6520000000000000000000000000000000600082015250565b7f416363657373436f6e74726f6c3a2063616e206f6e6c792072656e6f756e636560008201527f20726f6c657320666f722073656c660000000000000000000000000000000000602082015250565b6133c281612e8c565b81146133cd57600080fd5b50565b6133d981612eaa565b81146133e457600080fd5b50565b6133f081612eb4565b81146133fb57600080fd5b50565b61340781612f00565b811461341257600080fd5b5056fea264697066735822122054f843fa769151398856d4248017ee727cd16a6a3d2a080853bcfa1d59a6923964736f6c63430008040033",
  "linkReferences": {},
  "deployedLinkReferences": {}
}