{
  "_format": "hh-sol-artifact-1",
  "contractName": "Vesting",
  "sourceName": "contracts/Vesting.sol",
  "abi": [
    {
      "inputs": [
        {
          "internalType": "address",
          "name": "_token",
          "type": "address"
        }
      ],
      "stateMutability": "nonpayable",
      "type": "constructor"
    },
    {
      "anonymous": false,
      "inputs": [
        {
          "indexed": false,
          "internalType": "uint256",
          "name": "amount",
          "type": "uint256"
        },
        {
          "indexed": false,
          "internalType": "address",
          "name": "claimer",
          "type": "address"
        }
      ],
      "name": "Claim",
      "type": "event"
    },
    {
      "anonymous": false,
      "inputs": [
        {
          "indexed": true,
          "internalType": "address",
          "name": "previousOwner",
          "type": "address"
        },
        {
          "indexed": true,
          "internalType": "address",
          "name": "newOwner",
          "type": "address"
        }
      ],
      "name": "OwnershipTransferred",
      "type": "event"
    },
    {
      "inputs": [
        {
          "internalType": "uint256",
          "name": "amount",
          "type": "uint256"
        },
        {
          "internalType": "uint256",
          "name": "currentTime",
          "type": "uint256"
        },
        {
          "internalType": "uint256",
          "name": "startTime",
          "type": "uint256"
        },
        {
          "internalType": "uint256",
          "name": "endTime",
          "type": "uint256"
        }
      ],
      "name": "calcDistribution",
      "outputs": [
        {
          "internalType": "uint256",
          "name": "",
          "type": "uint256"
        }
      ],
      "stateMutability": "pure",
      "type": "function"
    },
    {
      "inputs": [
        {
          "internalType": "address",
          "name": "account",
          "type": "address"
        },
        {
          "internalType": "uint256",
          "name": "scheduled",
          "type": "uint256"
        }
      ],
      "name": "cancelVesting",
      "outputs": [],
      "stateMutability": "nonpayable",
      "type": "function"
    },
    {
      "inputs": [
        {
          "internalType": "uint256",
          "name": "scheduleNumber",
          "type": "uint256"
        }
      ],
      "name": "claim",
      "outputs": [],
      "stateMutability": "nonpayable",
      "type": "function"
    },
    {
      "inputs": [
        {
          "internalType": "address",
          "name": "account",
          "type": "address"
        },
        {
          "internalType": "uint256",
          "name": "scheduleId",
          "type": "uint256"
        }
      ],
      "name": "getVesting",
      "outputs": [
        {
          "internalType": "uint256",
          "name": "",
          "type": "uint256"
        },
        {
          "internalType": "uint256",
          "name": "",
          "type": "uint256"
        }
      ],
      "stateMutability": "view",
      "type": "function"
    },
    {
      "inputs": [
        {
          "internalType": "address",
          "name": "",
          "type": "address"
        }
      ],
      "name": "numberOfSchedules",
      "outputs": [
        {
          "internalType": "uint256",
          "name": "",
          "type": "uint256"
        }
      ],
      "stateMutability": "view",
      "type": "function"
    },
    {
      "inputs": [],
      "name": "owner",
      "outputs": [
        {
          "internalType": "address",
          "name": "",
          "type": "address"
        }
      ],
      "stateMutability": "view",
      "type": "function"
    },
    {
      "inputs": [],
      "name": "renounceOwnership",
      "outputs": [],
      "stateMutability": "nonpayable",
      "type": "function"
    },
    {
      "inputs": [
        {
          "internalType": "address",
          "name": "",
          "type": "address"
        },
        {
          "internalType": "uint256",
          "name": "",
          "type": "uint256"
        }
      ],
      "name": "schedules",
      "outputs": [
        {
          "internalType": "uint256",
          "name": "totalAmount",
          "type": "uint256"
        },
        {
          "internalType": "uint256",
          "name": "claimedAmount",
          "type": "uint256"
        },
        {
          "internalType": "uint256",
          "name": "startTime",
          "type": "uint256"
        },
        {
          "internalType": "uint256",
          "name": "cliffTime",
          "type": "uint256"
        },
        {
          "internalType": "uint256",
          "name": "endTime",
          "type": "uint256"
        },
        {
          "internalType": "bool",
          "name": "isFixed",
          "type": "bool"
        },
        {
          "internalType": "bool",
          "name": "cliffClaimed",
          "type": "bool"
        }
      ],
      "stateMutability": "view",
      "type": "function"
    },
    {
      "inputs": [
        {
          "internalType": "address",
          "name": "account",
          "type": "address"
        },
        {
          "internalType": "uint256",
          "name": "amount",
          "type": "uint256"
        },
        {
          "internalType": "bool",
          "name": "isFixed",
          "type": "bool"
        },
        {
          "internalType": "uint256",
          "name": "cliffWeeks",
          "type": "uint256"
        },
        {
          "internalType": "uint256",
          "name": "vestingWeeks",
          "type": "uint256"
        }
      ],
      "name": "setVestingSchedule",
      "outputs": [],
      "stateMutability": "nonpayable",
      "type": "function"
    },
    {
      "inputs": [
        {
          "internalType": "address",
          "name": "newOwner",
          "type": "address"
        }
      ],
      "name": "transferOwnership",
      "outputs": [],
      "stateMutability": "nonpayable",
      "type": "function"
    },
    {
      "inputs": [
        {
          "internalType": "uint256",
          "name": "amount",
          "type": "uint256"
        }
      ],
      "name": "withdraw",
      "outputs": [],
      "stateMutability": "nonpayable",
      "type": "function"
    }
  ],
  "bytecode": "0x60806040523480156200001157600080fd5b5060405162001bcd38038062001bcd833981810160405281019062000037919062000182565b620000576200004b6200009f60201b60201c565b620000a760201b60201c565b80600460006101000a81548173ffffffffffffffffffffffffffffffffffffffff021916908373ffffffffffffffffffffffffffffffffffffffff16021790555050620001fc565b600033905090565b60008060009054906101000a900473ffffffffffffffffffffffffffffffffffffffff169050816000806101000a81548173ffffffffffffffffffffffffffffffffffffffff021916908373ffffffffffffffffffffffffffffffffffffffff1602179055508173ffffffffffffffffffffffffffffffffffffffff168173ffffffffffffffffffffffffffffffffffffffff167f8be0079c531659141344cd1fd0a4f28419497f9722a3daafe3b4186f6b6457e060405160405180910390a35050565b6000815190506200017c81620001e2565b92915050565b6000602082840312156200019557600080fd5b6000620001a5848285016200016b565b91505092915050565b6000620001bb82620001c2565b9050919050565b600073ffffffffffffffffffffffffffffffffffffffff82169050919050565b620001ed81620001ae565b8114620001f957600080fd5b50565b6119c1806200020c6000396000f3fe608060405234801561001057600080fd5b50600436106100a95760003560e01c8063854e968211610071578063854e96821461013d5780638da5cb5b146101735780639c4e64e014610191578063de010640146101c1578063df681c14146101dd578063f2fde38b1461020d576100a9565b80632e1a7d4d146100ae578063379607f5146100ca5780633e05a36d146100e6578063715018a6146101175780637825e7b514610121575b600080fd5b6100c860048036038101906100c3919061113a565b610229565b005b6100e460048036038101906100df919061113a565b610459565b005b61010060048036038101906100fb919061105e565b61067c565b60405161010e9291906114ff565b60405180910390f35b61011f61075c565b005b61013b6004803603810190610136919061109a565b6107e4565b005b6101576004803603810190610152919061105e565b610b7d565b60405161016a9796959493929190611528565b60405180910390f35b61017b610be6565b6040516101889190611357565b60405180910390f35b6101ab60048036038101906101a6919061118c565b610c0f565b6040516101b891906114bb565b60405180910390f35b6101db60048036038101906101d6919061105e565b610c48565b005b6101f760048036038101906101f29190611035565b610df0565b60405161020491906114bb565b60405180910390f35b61022760048036038101906102229190611035565b610e08565b005b610231610f00565b73ffffffffffffffffffffffffffffffffffffffff1661024f610be6565b73ffffffffffffffffffffffffffffffffffffffff16146102a5576040517f08c379a000000000000000000000000000000000000000000000000000000000815260040161029c906113fb565b60405180910390fd5b80600354600460009054906101000a900473ffffffffffffffffffffffffffffffffffffffff1673ffffffffffffffffffffffffffffffffffffffff166370a08231306040518263ffffffff1660e01b81526004016103049190611357565b60206040518083038186803b15801561031c57600080fd5b505afa158015610330573d6000803e3d6000fd5b505050506040513d601f19601f820116820180604052508101906103549190611163565b61035e9190611689565b101561039f576040517f08c379a00000000000000000000000000000000000000000000000000000000081526004016103969061145b565b60405180910390fd5b600460009054906101000a900473ffffffffffffffffffffffffffffffffffffffff1673ffffffffffffffffffffffffffffffffffffffff1663a9059cbb6103e5610be6565b836040518363ffffffff1660e01b8152600401610403929190611372565b602060405180830381600087803b15801561041d57600080fd5b505af1158015610431573d6000803e3d6000fd5b505050506040513d601f19601f820116820180604052508101906104559190611111565b5050565b6000600160003373ffffffffffffffffffffffffffffffffffffffff1673ffffffffffffffffffffffffffffffffffffffff1681526020019081526020016000206000838152602001908152602001600020905042816003015411156104f4576040517f08c379a00000000000000000000000000000000000000000000000000000000081526004016104eb906113db565b60405180910390fd5b600081600001541161053b576040517f08c379a00000000000000000000000000000000000000000000000000000000081526004016105329061147b565b60405180910390fd5b600061055582600001544284600201548560040154610c0f565b905081600001548111610568578061056e565b81600001545b905060008260010154826105829190611689565b9050818360010181905550600460009054906101000a900473ffffffffffffffffffffffffffffffffffffffff1673ffffffffffffffffffffffffffffffffffffffff1663a9059cbb33836040518363ffffffff1660e01b81526004016105ea929190611372565b602060405180830381600087803b15801561060457600080fd5b505af1158015610618573d6000803e3d6000fd5b505050506040513d601f19601f8201168201806040525081019061063c9190611111565b507f35538759d80c1fd7bb450a0d05601db5a99fa8b5d073a07c847a9fd61029b107823360405161066e9291906114d6565b60405180910390a150505050565b6000806000600160008673ffffffffffffffffffffffffffffffffffffffff1673ffffffffffffffffffffffffffffffffffffffff16815260200190815260200160002060008581526020019081526020016000206040518060e001604052908160008201548152602001600182015481526020016002820154815260200160038201548152602001600482015481526020016005820160009054906101000a900460ff161515151581526020016005820160019054906101000a900460ff16151515158152505090508060000151816020015192509250509250929050565b610764610f00565b73ffffffffffffffffffffffffffffffffffffffff16610782610be6565b73ffffffffffffffffffffffffffffffffffffffff16146107d8576040517f08c379a00000000000000000000000000000000000000000000000000000000081526004016107cf906113fb565b60405180910390fd5b6107e26000610f08565b565b6107ec610f00565b73ffffffffffffffffffffffffffffffffffffffff1661080a610be6565b73ffffffffffffffffffffffffffffffffffffffff1614610860576040517f08c379a0000000000000000000000000000000000000000000000000000000008152600401610857906113fb565b60405180910390fd5b83600354600460009054906101000a900473ffffffffffffffffffffffffffffffffffffffff1673ffffffffffffffffffffffffffffffffffffffff166370a08231306040518263ffffffff1660e01b81526004016108bf9190611357565b60206040518083038186803b1580156108d757600080fd5b505afa1580156108eb573d6000803e3d6000fd5b505050506040513d601f19601f8201168201806040525081019061090f9190611163565b6109199190611689565b101561095a576040517f08c379a00000000000000000000000000000000000000000000000000000000081526004016109519061141b565b60405180910390fd5b8181101561099d576040517f08c379a00000000000000000000000000000000000000000000000000000000081526004016109949061143b565b60405180910390fd5b6000600260008773ffffffffffffffffffffffffffffffffffffffff1673ffffffffffffffffffffffffffffffffffffffff1681526020019081526020016000205490506040518060e001604052808681526020016000815260200142815260200162093a8085610a0e919061162f565b42610a1991906115a8565b815260200162093a8084610a2d919061162f565b42610a3891906115a8565b8152602001851515815260200160001515815250600160008873ffffffffffffffffffffffffffffffffffffffff1673ffffffffffffffffffffffffffffffffffffffff1681526020019081526020016000206000838152602001908152602001600020600082015181600001556020820151816001015560408201518160020155606082015181600301556080820151816004015560a08201518160050160006101000a81548160ff02191690831515021790555060c08201518160050160016101000a81548160ff021916908315150217905550905050600181610b1e91906115a8565b600260008873ffffffffffffffffffffffffffffffffffffffff1673ffffffffffffffffffffffffffffffffffffffff1681526020019081526020016000208190555084600354610b6f91906115a8565b600381905550505050505050565b6001602052816000526040600020602052806000526040600020600091509150508060000154908060010154908060020154908060030154908060040154908060050160009054906101000a900460ff16908060050160019054906101000a900460ff16905087565b60008060009054906101000a900473ffffffffffffffffffffffffffffffffffffffff16905090565b60008282610c1d9190611689565b8385610c299190611689565b610c3391906115fe565b85610c3e919061162f565b9050949350505050565b610c50610f00565b73ffffffffffffffffffffffffffffffffffffffff16610c6e610be6565b73ffffffffffffffffffffffffffffffffffffffff1614610cc4576040517f08c379a0000000000000000000000000000000000000000000000000000000008152600401610cbb906113fb565b60405180910390fd5b6000600160008473ffffffffffffffffffffffffffffffffffffffff1673ffffffffffffffffffffffffffffffffffffffff168152602001908152602001600020600083815260200190815260200160002090508060000154816001015410610d62576040517f08c379a0000000000000000000000000000000000000000000000000000000008152600401610d599061149b565b60405180910390fd5b8060050160009054906101000a900460ff1615610db4576040517f08c379a0000000000000000000000000000000000000000000000000000000008152600401610dab906113bb565b60405180910390fd5b600081600101548260000154610dca9190611689565b90506000826000018190555080600354610de49190611689565b60038190555050505050565b60026020528060005260406000206000915090505481565b610e10610f00565b73ffffffffffffffffffffffffffffffffffffffff16610e2e610be6565b73ffffffffffffffffffffffffffffffffffffffff1614610e84576040517f08c379a0000000000000000000000000000000000000000000000000000000008152600401610e7b906113fb565b60405180910390fd5b600073ffffffffffffffffffffffffffffffffffffffff168173ffffffffffffffffffffffffffffffffffffffff161415610ef4576040517f08c379a0000000000000000000000000000000000000000000000000000000008152600401610eeb9061139b565b60405180910390fd5b610efd81610f08565b50565b600033905090565b60008060009054906101000a900473ffffffffffffffffffffffffffffffffffffffff169050816000806101000a81548173ffffffffffffffffffffffffffffffffffffffff021916908373ffffffffffffffffffffffffffffffffffffffff1602179055508173ffffffffffffffffffffffffffffffffffffffff168173ffffffffffffffffffffffffffffffffffffffff167f8be0079c531659141344cd1fd0a4f28419497f9722a3daafe3b4186f6b6457e060405160405180910390a35050565b600081359050610fdb81611946565b92915050565b600081359050610ff08161195d565b92915050565b6000815190506110058161195d565b92915050565b60008135905061101a81611974565b92915050565b60008151905061102f81611974565b92915050565b60006020828403121561104757600080fd5b600061105584828501610fcc565b91505092915050565b6000806040838503121561107157600080fd5b600061107f85828601610fcc565b92505060206110908582860161100b565b9150509250929050565b600080600080600060a086880312156110b257600080fd5b60006110c088828901610fcc565b95505060206110d18882890161100b565b94505060406110e288828901610fe1565b93505060606110f38882890161100b565b92505060806111048882890161100b565b9150509295509295909350565b60006020828403121561112357600080fd5b600061113184828501610ff6565b91505092915050565b60006020828403121561114c57600080fd5b600061115a8482850161100b565b91505092915050565b60006020828403121561117557600080fd5b600061118384828501611020565b91505092915050565b600080600080608085870312156111a257600080fd5b60006111b08782880161100b565b94505060206111c18782880161100b565b93505060406111d28782880161100b565b92505060606111e38782880161100b565b91505092959194509250565b6111f8816116bd565b82525050565b611207816116cf565b82525050565b600061121a602683611597565b915061122582611763565b604082019050919050565b600061123d601983611597565b9150611248826117b2565b602082019050919050565b6000611260601e83611597565b915061126b826117db565b602082019050919050565b6000611283602083611597565b915061128e82611804565b602082019050919050565b60006112a6602683611597565b91506112b18261182d565b604082019050919050565b60006112c9602c83611597565b91506112d48261187c565b604082019050919050565b60006112ec602083611597565b91506112f7826118cb565b602082019050919050565b600061130f601c83611597565b915061131a826118f4565b602082019050919050565b6000611332601d83611597565b915061133d8261191d565b602082019050919050565b611351816116fb565b82525050565b600060208201905061136c60008301846111ef565b92915050565b600060408201905061138760008301856111ef565b6113946020830184611348565b9392505050565b600060208201905081810360008301526113b48161120d565b9050919050565b600060208201905081810360008301526113d481611230565b9050919050565b600060208201905081810360008301526113f481611253565b9050919050565b6000602082019050818103600083015261141481611276565b9050919050565b6000602082019050818103600083015261143481611299565b9050919050565b60006020820190508181036000830152611454816112bc565b9050919050565b60006020820190508181036000830152611474816112df565b9050919050565b6000602082019050818103600083015261149481611302565b9050919050565b600060208201905081810360008301526114b481611325565b9050919050565b60006020820190506114d06000830184611348565b92915050565b60006040820190506114eb6000830185611348565b6114f860208301846111ef565b9392505050565b60006040820190506115146000830185611348565b6115216020830184611348565b9392505050565b600060e08201905061153d600083018a611348565b61154a6020830189611348565b6115576040830188611348565b6115646060830187611348565b6115716080830186611348565b61157e60a08301856111fe565b61158b60c08301846111fe565b98975050505050505050565b600082825260208201905092915050565b60006115b3826116fb565b91506115be836116fb565b9250827fffffffffffffffffffffffffffffffffffffffffffffffffffffffffffffffff038211156115f3576115f2611705565b5b828201905092915050565b6000611609826116fb565b9150611614836116fb565b92508261162457611623611734565b5b828204905092915050565b600061163a826116fb565b9150611645836116fb565b9250817fffffffffffffffffffffffffffffffffffffffffffffffffffffffffffffffff048311821515161561167e5761167d611705565b5b828202905092915050565b6000611694826116fb565b915061169f836116fb565b9250828210156116b2576116b1611705565b5b828203905092915050565b60006116c8826116db565b9050919050565b60008115159050919050565b600073ffffffffffffffffffffffffffffffffffffffff82169050919050565b6000819050919050565b7f4e487b7100000000000000000000000000000000000000000000000000000000600052601160045260246000fd5b7f4e487b7100000000000000000000000000000000000000000000000000000000600052601260045260246000fd5b7f4f776e61626c653a206e6577206f776e657220697320746865207a65726f206160008201527f6464726573730000000000000000000000000000000000000000000000000000602082015250565b7f56657374696e673a204163636f756e7420697320666978656400000000000000600082015250565b7f56657374696e673a20636c69666654696d65206e6f7420726561636865640000600082015250565b7f4f776e61626c653a2063616c6c6572206973206e6f7420746865206f776e6572600082015250565b7f56657374696e673a206e6f7420656e6f75676820746f6b656e7320696e20636f60008201527f6e74726163740000000000000000000000000000000000000000000000000000602082015250565b7f56657374696e673a2043616e6e6f74207769746864726177206265666f72652060008201527f636c69666620706572696f640000000000000000000000000000000000000000602082015250565b7f57697468647261773a206e6f7420656e6f75676820746f6b656e73206c656674600082015250565b7f56657374696e673a204e6f20636c61696d61626c6520746f6b656e7300000000600082015250565b7f56657374696e673a20546f6b656e732066756c6c7920636c61696d6564000000600082015250565b61194f816116bd565b811461195a57600080fd5b50565b611966816116cf565b811461197157600080fd5b50565b61197d816116fb565b811461198857600080fd5b5056fea2646970667358221220ec1f6bce511e8e7c0e3c240e165aaccb7d914a9f3840f53876933c4ebf53563464736f6c63430008040033",
  "linkReferences": {},
  "deployedLinkReferences": {}
}